:10080000A00E002025370000913700009937000026
:10081000A1370000A1370000A13700000000000050
:10082000000000000000000000000000A1370000F0
:10083000A137000000000000A1370000A137000030
:10084000A1370000A1370000A1370000A137000048
:10085000A1370000A1370000A1370000A137000038
:10086000A1370000A1370000A1370000A137000028
:10087000A1370000A1370000A1370000A137000018
:10088000A1370000A1370000A1370000A137000008
:10089000A1370000A1370000A1370000A1370000F8
:1008A000A1370000A1370000A1370000A1370000E8
:1008B000A1370000A137000080B487B000AF786096
:1008C0004FF000037B614FF000033B614FF00003EA
:1008D000FB6028E03B694FEA43033B617B694FEAD9
:1008E00083027B684FEA9373D3187B617B684FEA7E
:1008F00083037B603B6903F101033B613A697B69D8
:100900009A4208D87A693B69D31A7B613B6903F143
:1009100001033B6103E03B6903F1FF333B61FB688B
:1009200003F10103FB60FB680F2BD3D93B694FEA4E
:100930005303184607F11C07BD4680BC704700BF33
:1009400080B586B000AF3A600246FA710A46BA71C5
:100950007B714FF000037B61BB794FEAC30240F625
:10096000BC63C2F200031B68D3183B61FB794FEAFA
:10097000031240F6A063C2F200031B68D318FB60A9
:1009800011E07B693A68D3181A787B791046396987
:10099000FA6800F067F93B6903F108033B617B6982
:1009A00003F101037B617B693A68D3181B78002B44
:1009B000E7D107F11807BD4680BD00BF80B588B0FC
:1009C00000AFF860B9607A603B6040F66453C2F2F1
:1009D00000031B68FA689A4205DA40F66453C2F2D3
:1009E00000031B68FB6040F20003C2F200031B68B7
:1009F000BA689A4205DD40F20003C2F200031B68A8
:100A0000BB6040F66853C2F200031B687A689A42E2
:100A100005DA40F66853C2F200031B687B6040F2BF
:100A20000403C2F200031B683A689A4205DD40F2F3
:100A30000403C2F200031B683B604FF0520000F059
:100A4000BDFAFB68184600F033FA4FF0530000F08F
:100A5000B5FABB68184600F02BFA4FF0210000F001
:100A6000ADFAFB68184600F023FABA68FB68D31A9F
:100A700003F101037B614FF0500000F09FFA7B68A7
:100A8000184600F015FA4FF0510000F097FA3B6855
:100A9000184600F00DFA4FF0200000F08FFA7B6846
:100AA000184600F005FA3A687B68D31A03F101038F
:100AB0003B614FF0220000F081FA97F82C30002BB8
:100AC00003D097F82C30022B1BD14FF00003BB61F1
:100AD00012E04FF00003FB6106E0B86A00F0E8F9AD
:100AE000FB6903F10103FB61FA697B699A42F4D364
:100AF000BB6903F10103BB61BA693B699A42E8D360
:100B000027E097F82C30012B23D14FF00003BB6175
:100B10001BE04FF00003FB610FE000F0D5FAB86274
:100B200000F0D2FAB862BB6A6FEA0303184600F01D
:100B3000BFF9FB6903F10103FB61FA697B699A4222
:100B4000EBD3BB6903F10103BB61BA693B699A420C
:100B5000DFD307F12007BD4680BD00BF80B483B05E
:100B600000AF786040F6A463C2F200037A681A60AE
:100B700007F10C07BD4680BC704700BF80B485B04C
:100B800000AF02460B46FA71BB71BB79072B11D837
:100B9000FA7940F6A863C2F2000313F812301A463D
:100BA000BB79C3F1070342FA03F3DBB203F001039D
:100BB000FB7316E0BB79A3F10803BB71FB7940F628
:100BC000A862C2F200024FEA4303D3185B781A46C8
:100BD000BB79C3F1070342FA03F3DBB203F001036D
:100BE000FB73FB7B184607F11407BD4680BC7047BA
:100BF00080B485B000AF0346FB71FB794FEA031365
:100C0000BB604FF00003FB7324E04FF00003BB73A5
:100C100019E0F87BB97B43F6A423C0F20003BA685D
:100C20009B181A7840F6A863C2F200034FEA40000E
:100C300041185B181A70BB6803F10103BB60BB7BF2
:100C400003F10103BB73BB7B012BE2D9FB7B03F1F7
:100C50000103FB73FB7B072BD7D907F11407BD46B4
:100C600080BC704780B58AB000AFB9607A60024638
:100C7000FA73BB73BB6803F107033B627B6803F144
:100C80000F03FB61FB7BA3F12003DBB21846FFF7E8
:100C9000AFFF4FF0520000F091F9BB68184600F02A
:100CA00007F94FF0530000F089F93B6A184600F04D
:100CB000FFF84FF0210000F081F9BB68184600F002
:100CC000F7F83A6ABB68D31A03F10103BB617B688A
:100CD000C3F1EF037B60FB69C3F1EF03FB614FF0EE
:100CE000500000F06BF9FB69184600F0E1F84FF096
:100CF000510000F063F97B68184600F0D9F84FF016
:100D0000200000F05BF97B68184600F0D1F87A68A3
:100D1000FB69D31A03F101037B614FF0220000F05D
:100D20004DF9BB7B002B41D14FF0000387F82630F3
:100D300036E04FF0000387F8273026E04FF06400DC
:100D400000F044FC97F8272097F826301046194603
:100D5000FFF714FF0346002B08D040F6A463C2F24D
:100D600000031B68184600F0A3F808E000F0ACF997
:100D7000386100F0A9F93861386900F099F897F8FE
:100D8000273003F1010387F8273097F82720BB6944
:100D90009A42D3D397F8263003F1010387F826301F
:100DA00097F826207B699A42C3D37DE0BB7B012B59
:100DB0003BD14FF0000387F8263030E04FF00003BE
:100DC00087F8273020E000F07FF9386100F07CF9E7
:100DD000386197F8272097F8263010461946FFF714
:100DE000CDFE0346002B06D03B696FEA030318468D
:100DF00000F05EF802E0386900F05AF897F8273002
:100E000003F1010387F8273097F82720BB699A423E
:100E1000D9D397F8263003F1010387F8263097F8E5
:100E200026207B699A42C9D33EE0BB7B022B3BD193
:100E30004FF0000387F8263031E04FF0000387F8C9
:100E4000273021E097F8272097F8263010461946DA
:100E5000FFF794FE0346002B08D040F6A463C2F2CD
:100E600000031B68184600F023F807E040F6B8635B
:100E7000C2F200031B68184600F01AF897F82730F2
:100E800003F1010387F8273097F82720BB699A42BE
:100E9000D8D397F8263003F1010387F8263097F866
:100EA00026207B699A42C8D307F12807BD4680BD3A
:100EB00080B483B000AF786044F2FC33C4F2000326
:100EC00044F2FC32C4F20002126842F020021A60BE
:100ED00044F2FC33C4F2000344F2FC32C4F20002D8
:100EE000126842F004021A6044F2FC33C4F20003B8
:100EF00044F2FC32C4F20002126822F010021A60BE
:100F00004FF4A843C4F200034FF6FF721A6045F293
:100F1000FC33C4F200037A684FEA12221A6044F2EA
:100F2000FC33C4F2000344F2FC32C4F20002126843
:100F300022F008021A6044F2FC33C4F2000344F2C7
:100F4000FC32C4F20002126842F008021A6045F254
:100F5000FC33C4F200037A681A6044F2FC33C4F232
:100F6000000344F2FC32C4F20002126822F00802CC
:100F70001A6044F2FC33C4F2000344F2FC32C4F2BF
:100F80000002126842F008021A6044F2FC33C4F214
:100F9000000344F2FC32C4F20002126842F0100274
:100FA0001A604FF4A843C4F200034FF000021A6025
:100FB00007F10C07BD4680BC704700BF80B483B00A
:100FC00000AF786044F2FC33C4F2000344F2FC3218
:100FD000C4F20002126822F020021A6044F2FC33CC
:100FE000C4F2000344F2FC32C4F20002126842F080
:100FF00004021A6044F2FC33C4F2000344F2FC32EF
:10100000C4F20002126822F010021A604FF4A843E2
:10101000C4F200034FF6FF721A6045F2FC33C4F2CB
:1010200000037A684FEA12221A6044F2FC33C4F2D9
:10103000000344F2FC32C4F20002126822F00802FB
:101040001A6044F2FC33C4F2000344F2FC32C4F2EE
:101050000002126842F008021A6045F2FC33C4F242
:1010600000037A681A6044F2FC33C4F2000344F2CD
:10107000FC32C4F20002126822F008021A6044F244
:10108000FC33C4F2000344F2FC32C4F200021268E2
:1010900042F008021A6044F2FC33C4F2000344F246
:1010A000FC32C4F20002126842F010021A604FF4DF
:1010B000A843C4F200034FF000021A6007F10C07C6
:1010C000BD4680BC704700BF80B483B000AF4FF016
:1010D00000037B604FF4A843C4F200034FF000020A
:1010E0001A6044F2FC33C4F2000344F2FC32C4F24E
:1010F0000002126842F020021A6044F2FC33C4F28B
:10110000000344F2FC32C4F20002126842F0100202
:101110001A6044F2FC33C4F2000344F2FC32C4F21D
:101120000002126822F004021A6044F2FC33C4F296
:10113000000344F2FC32C4F20002126822F00802FA
:101140001A6044F2FC33C4F2000344F2FC32C4F2ED
:101150000002126822F008021A6045F2FC33C4F261
:1011600000031B687B6044F2FC33C4F2000344F2CA
:10117000FC32C4F20002126842F008021A607B6876
:101180004FEA03237B6044F2FC33C4F2000344F2D1
:10119000FC32C4F20002126822F008021A6044F223
:1011A000FC33C4F2000344F2FC32C4F200021268C1
:1011B00022F008021A6045F2FC33C4F200031B68F7
:1011C0007A6813437B6044F2FC33C4F2000344F2B8
:1011D000FC32C4F20002126842F008021A6044F2C3
:1011E000FC33C4F2000344F2FC32C4F20002126881
:1011F00042F004021A607B68184607F10C07BD46EE
:1012000080BC704780B500AF47F2FC33C4F20003E6
:1012100047F2FC32C4F20002126822F001021A60A6
:1012200041F2883000F0D2F947F2FC33C4F20003F7
:1012300047F2FC32C4F20002126842F001021A6066
:1012400080BD00BF80B500AF4FF47A7000F0BEF9EA
:101250004FF0E500FFF7B2FE4FF40040FFF728FE25
:101260004FF00000FFF7AAFE4FF00100FFF720FE4D
:1012700041F2883000F0AAF94FF00100FFF79EFE1E
:101280004FF00000FFF714FE4FF00200FFF796FE4C
:101290004FF4E060FFF70CFE4FF00300FFF78EFE07
:1012A0004FF02800FFF704FE4FF00400FFF786FE22
:1012B0004FF00000FFF7FCFD4FF00800FFF77EFE47
:1012C00040F20220FFF7F4FD4FF00900FFF776FE31
:1012D0004FF00000FFF7ECFD4FF00A00FFF76EFE45
:1012E0004FF00000FFF7E4FD4FF00C00FFF766FE43
:1012F0004FF00000FFF7DCFD4FF00D00FFF75EFE42
:101300004FF00000FFF7D4FD4FF00F00FFF756FE3F
:101310004FF00000FFF7CCFD4FF01000FFF74EFE3E
:101320004FF00000FFF7C4FD4FF01100FFF746FE3D
:101330004FF00000FFF7BCFD4FF01200FFF73EFE3C
:101340004FF00000FFF7B4FD4FF01300FFF736FE3B
:101350004FF00000FFF7ACFD44F6206000F036F9D6
:101360004FF01000FFF72AFE41F2B070FFF7A0FD2A
:101370004FF01100FFF722FE40F23710FFF798FD03
:1013800041F2883000F022F94FF01200FFF716FE0C
:101390004FF49E70FFF78CFD41F2883000F016F993
:1013A0004FF01300FFF70AFE4FF4A050FFF780FD47
:1013B0004FF02900FFF702FE4FF00700FFF778FD1E
:1013C0004CF2503000F002F94FF02000FFF7F6FD2C
:1013D0004FF00000FFF76CFD4FF02100FFF7EEFD2E
:1013E0004FF00000FFF764FD4FF03000FFF7E6FD1F
:1013F0004FF00700FFF75CFD4FF03100FFF7DEFD17
:1014000040F20450FFF754FD4FF03200FFF7D6FDD5
:1014100040F20370FFF74CFD4FF03500FFF7CEFDB3
:101420004FF00200FFF744FD4FF03600FFF7C6FD16
:1014300040F20770FFF73CFD4FF03700FFF7BEFDAD
:1014400040F20640FFF734FD4FF03800FFF7B6FDDD
:101450004FF00600FFF72CFD4FF03900FFF7AEFD0F
:1014600040F20440FFF724FD4FF03C00FFF7A6FDDB
:101470004FF4E060FFF71CFD4FF03D00FFF79EFDCD
:1014800040F60820FFF714FD4FF05000FFF796FDDF
:101490004FF00000FFF70CFD4FF05100FFF78EFDFD
:1014A0004FF0EF00FFF704FD4FF05200FFF786FD0D
:1014B0004FF00000FFF7FCFC4FF05300FFF77EFDFC
:1014C00040F23F10FFF7F4FC4FF06000FFF776FDAD
:1014D0004FF41C50FFF7ECFC4FF06100FFF76EFD7E
:1014E0004FF00100FFF7E4FC4FF06A00FFF766FDE4
:1014F0004FF00000FFF7DCFC4FF08000FFF75EFDCF
:101500004FF00000FFF7D4FC4FF08100FFF756FDCD
:101510004FF00000FFF7CCFC4FF08200FFF74EFDCC
:101520004FF00000FFF7C4FC4FF08300FFF746FDCB
:101530004FF00000FFF7BCFC4FF08400FFF73EFDCA
:101540004FF00000FFF7B4FC4FF08500FFF736FDC9
:101550004FF00000FFF7ACFC4FF09000FFF72EFDBE
:101560004FF01000FFF7A4FC4FF09200FFF726FDAC
:101570004FF00000FFF79CFC4FF09300FFF71EFDBB
:101580004FF00300FFF794FC4FF09500FFF716FDB6
:101590004FF48870FFF78CFC4FF09700FFF70EFDBB
:1015A0004FF00000FFF784FC4FF09800FFF706FDB6
:1015B0004FF00000FFF77CFC4FF00700FFF7FEFC48
:1015C00040F27310FFF774FC80BD00BF80B483B09D
:1015D00000AF786003E07B6803F1FF337B607B68DA
:1015E000002BF8D107F10C07BD4680BC704700BF47
:1015F00080B487B000AFF860B9601346FB71FB7927
:10160000002B0BD0FB6803F10C031A68BB684FF08A
:10161000011101FA03F313407B611FE0FB6803F142
:1016200004031A68BB684FF0010101FA03F343F4A5
:10163000803313407B617B6903F48033002B0DD032
:101640007B6943F470237B61BB684FF4803202FAFC
:1016500003F36FEA03037A6913407B617B691846E1
:1016600007F11C07BD4680BC704700BF80B483B043
:1016700000AF786039607B6803F10C033A684FF083
:10168000010101FA02F21A6007F10C07BD4680BCA5
:10169000704700BF80B483B000AF786039607B686A
:1016A0007A6811683A684FF0010000FA02F20A43C2
:1016B0001A6007F10C07BD4680BC704780B485B046
:1016C00000AFF860B9607A603B60BB684FEA8303A3
:1016D000BB60FB6803F11403FA6802F1140211689D
:1016E000BA684FF00F0000FA02F26FEA02021140EE
:1016F0007A6802F00F00BA6800FA02F20A431A6030
:10170000FB6803F12003FA6802F120021168BA684D
:101710004FF00F0000FA02F26FEA020211403A683D
:1017200002F00300BA6800FA02F20A431A6007F1F5
:101730001407BD4680BC704780B487B000AFF86026
:10174000B9607A603B60BB6803F102034FEA431360
:10175000FA68D318FB607B684FEA83037B60FB6801
:10176000FA6811687A684FF00F0000FA02F26FEA27
:10177000020211403A6802F00F007A6800FA02F2A1
:101780000A431A60FB6803F11803FA6802F11802B1
:1017900011687A684FF00F0000FA02F26FEA020255
:1017A00011403A6802F470624FEA12207A6800FA37
:1017B00002F20A431A60FB6803F10403FA6802F1BB
:1017C000040211687A684FF00F0000FA02F26FEA23
:1017D000020211403A6802F0F0024FEA12107A68F1
:1017E00000FA02F20A431A603B6803F47023002BEC
:1017F00031D0FB6803F114031B687B617B684FF0F9
:101800000F0202FA03F36FEA03037A6913407B6164
:101810003B6803F4E0234FEA13427B6802FA03F3C8
:101820007A6913437B61FB6803F114037A691A60D8
:10183000FB6803F110031B687B617B684FF00102BA
:1018400002FA03F37A6913437B61FB6803F1100327
:101850007A691A6013E0FB6803F110031B687B616F
:101860007B684FF0010202FA03F36FEA03037A691F
:1018700013407B61FB6803F110037A691A6007F17A
:101880001C07BD4680BC704780B487B000AFF860CD
:10189000B9607A60BB6803F102034FEA4313FA6848
:1018A000D318FB604FF000037B610DE0FB6803F190
:1018B00008031A687B681A607B6803F104037B6085
:1018C0007B6903F101037B61FB6803F10C031B6877
:1018D00003F48073002B02D17B69072BE6D97B6967
:1018E000184607F11C07BD4680BC704790B482B013
:1018F00000AF786039607B6803F128031A467B6883
:1019000003F1280319683B684FEA13434FEA034386
:10191000386800F00F004FF0010404FA00F00343B0
:101920000B43136007F10807BD4690BC704700BF2A
:10193000EFF3108062B670472346184680B485B036
:1019400000AFF8600B467A60FB72FB6803F58063BA
:101950001A467B6803F00103DBB2002B06D0FB685C
:1019600003F580631968FB7A0B4307E0FB6803F516
:1019700080631968FB7A6FEA03030B401360FB680E
:1019800003F584631A467B6803F00203002B06D03C
:10199000FB6803F584631968FB7A0B4307E0FB6877
:1019A00003F584631968FB7A6FEA03030B40136045
:1019B00007F11407BD4680BC704700BF80B485B0F6
:1019C00000AFF8607A603B600B46FB72FB6803F582
:1019D000A0631A467B6803F00103DBB2002B06D03C
:1019E000FB6803F5A0631968FB7A0B4307E0FB680B
:1019F00003F5A0631968FB7A6FEA03030B401360D9
:101A0000FB6803F5A06303F104031A467B6803F047
:101A10000203002B08D0FB6803F5A06303F1040365
:101A20001968FB7A0B4309E0FB6803F5A06303F137
:101A300004031968FB7A6FEA03030B401360FB6829
:101A400003F5A1631A467B6803F00403002B06D05C
:101A5000FB6803F5A1631968FB7A0B4307E0FB6899
:101A600003F5A1631968FB7A6FEA03030B40136067
:101A7000FB6803F5A3631A467B6803F00803002B99
:101A800006D0FB6803F5A3631968FB7A0B4307E0F4
:101A9000FB6803F5A3631968FB7A6FEA03030B4045
:101AA0001360FB6803F5A06303F10C031A463B685F
:101AB00003F00103DBB2002B08D0FB6803F5A06341
:101AC00003F10C031968FB7A0B4309E0FB6803F58B
:101AD000A06303F10C031968FB7A6FEA03030B4060
:101AE0001360FB6803F5A2631A463B6803F0020328
:101AF000002B06D0FB6803F5A2631968FB7A0B4341
:101B000007E0FB6803F5A2631968FB7A6FEA030339
:101B10000B401360FB6803F5A26303F104031A464C
:101B20003B6803F00403002B08D0FB6803F5A263B5
:101B300003F104031968FB7A0B4309E0FB6803F522
:101B4000A26303F104031968FB7A6FEA03030B40F5
:101B50001360FB6803F5A26303F10C031A463B68AC
:101B600003F00803002B08D0FB6803F5A26303F120
:101B70000C031968FB7A0B4309E0FB6803F5A263C9
:101B800003F10C031968FB7A6FEA03030B4013603F
:101B9000FB6803F5A5631A463B68002B06D1FB687A
:101BA00003F5A5631968FB7A0B4307E0FB6803F5AF
:101BB000A5631968FB7A6FEA03030B40136007F112
:101BC0001407BD4680BC704780B483B000AF786016
:101BD0000B46FB70FB784FEA83031A467B68D318E9
:101BE0001B68184607F10C07BD4680BC704700BF54
:101BF00080B582B000AF78600B46FB70FB787868E8
:101C000019464FF00002FFF799FEFB7878681946F5
:101C10004FF001024FF00803FFF7D0FE07F108076D
:101C2000BD4680BD80B582B000AF78600B46FB70CA
:101C3000FB78786819464FF001024FF00803FFF770
:101C4000BDFEFB78786819464FF00102FFF776FE7B
:101C500007F10807BD4680BD80B500AFFFF768FEFD
:101C60000346DBB2184680BD80B483B000AF786015
:101C70007B6803F07043B3F1704F27D17B6803F4A6
:101C80007F434FEA13224FF46643C4F20F03D31885
:101C900003F070427B6803F47F434FEA13214FF453
:101CA0006643C4F20F03CB1823F07F4323F4700381
:101CB0004FEA43131A437B68DBB24FEA83031343B3
:101CC00043F000734FF001021A6021E07B684FEA95
:101CD000137244F2C053C0F2000353F822301A4684
:101CE0007B684FEA137144F2C053C0F2000353F80B
:101CF000213019687B684FEA03434FEA1343786841
:101D000000F4F8104FEA104003FA00F30B4313609D
:101D100007F10C07BD4680BC704700BF01387FF457
:101D2000FDAF704780B586B000AF78604FF4604378
:101D3000C4F20F031B6803F0E043002B0CD04FF4F8
:101D40006043C4F20F031A684FF00003C7F2FF03A9
:101D50001340B3F1805F03D17B68002BC0F2338165
:101D60004EF26003C4F20F031B683B614EF2700336
:101D7000C4F20F031B68FB603B6943F400633B61E3
:101D80003B6923F480033B61FB6843F40063FB6021
:101D90004EF26003C4F20F033A691A604EF2700308
:101DA000C4F20F03FA681A603B6903F00203002BC8
:101DB00004D07B6803F00203002B0AD03B6903F0D8
:101DC0000103DBB2002B2ED07B6803F00103002B54
:101DD00029D17B6863F003033A6913403B614EF2FB
:101DE0006003C4F20F033A691A60FB68002B09DA3A
:101DF000FB6803F07003302B0CD0FB6803F070031A
:101E0000702B07D0FB68002B09DB3B6903F0300324
:101E1000302B04D14FF48050FFF780FF03E04FF4E4
:101E20000020FFF77BFF3B6923F4FE633B617B6887
:101E300003F4FE633A6913433B61FB6823F00043FC
:101E400023F07003FB607A684FF03003C8F20003A0
:101E50001340FA681343FB607B6803F008034FEA02
:101E6000C303FA681343FB604EF26003C4F20F032E
:101E70003A691A604EF27003C4F20F03FA681A60EE
:101E80004FF01000FFF74AFF3B6923F440533B61DA
:101E90007B6803F440533A6913433B61FB6823F4C6
:101EA0000053FB607B6803F40053FA681343FB6044
:101EB0004EF25803C4F20F034FF040021A60FB6861
:101EC000002B0CDA4EF27003C4F20F03FA681A60AA
:101ED0004EF26003C4F20F033A691A600BE04EF24F
:101EE0006003C4F20F033A691A604EF27003C4F241
:101EF0000F03FA681A603B6923F0F86323F00303C9
:101F00003B617A684FF00303C0F2C07313403A6933
:101F100013433B61FB6823F0FC53FB607B6803F0D9
:101F2000FC53FA681343FB607B6803F08043002B8B
:101F300011D03B6943F480033B61FB6823F48003C9
:101F4000FB607A684FF00003C4F240031340FA6864
:101F50001343FB6003E0FB6823F08043FB607B6876
:101F600003F40063002B1DD14FF400437B610CE0B0
:101F70004EF25003C4F20F031B6803F04003002B22
:101F800007D17B6903F1FF337B617B69002BEFD1C4
:101F900000E000BF3B6923F400633B61FB6823F46E
:101FA0000063FB604EF26003C4F20F033A691A60EB
:101FB0004EF27003C4F20F03FA681A604FF010007B
:101FC000FFF7ACFE00E000BF07F11807BD4680BD7B
:101FD00080B487B000AF4EF26003C4F20F031B68F9
:101FE0007B614EF27003C4F20F031B68FB60FB6859
:101FF000002B03DAFB6803F0700302E07B6903F057
:102000003003202B7CD0202B04D8002B0CD0102B9D
:1020100017D0E0E0602B00F0D680702B00F0D78066
:10202000302B00F0CC80D6E07B6903F4F8634FEAF4
:10203000931244F2E453C0F2000353F822303B61A0
:10204000CCE04FF46043C4F20F031B6803F0E0439D
:10205000002B0CD04FF46043C4F20F031A684FF00A
:102060000003C7F2FF031340B3F1805F05D14EF2C6
:10207000C013C0F2E4033B6141E04FF46043C4F29B
:102080000F031A684FF00003C7F2FF0313404FF02D
:102090000002C1F2010293420AD14FF46043C4F23C
:1020A0000F031B684FEA03434FEA1343022B1AD076
:1020B0004FF46043C4F20F031A684FF00003C7F2F5
:1020C000FF0313404FF00002C1F20302934210D10C
:1020D0004FF46043C4F20F031B684FEA03434FEA17
:1020E0001343002B05D14FF4D853C0F2B7033B6123
:1020F00005E04FF41053C0F2F4033B616EE06DE075
:102100004FF46043C4F20F031B6803F0E043002B5D
:102110000CD04FF46043C4F20F031A684FF0000371
:10212000C7F2FF031340B3F1805F05D143F670039C
:10213000C0F239033B6141E04FF46043C4F20F0346
:102140001A684FF00003C7F2FF0313404FF000027C
:10215000C1F2010293420AD14FF46043C4F20F036B
:102160001B684FEA03434FEA1343022B1AD04FF484
:102170006043C4F20F031A684FF00003C7F2FF0375
:1021800013404FF00002C1F20302934210D14FF40A
:102190006043C4F20F031B684FEA03434FEA134343
:1021A000002B05D14CF2C063C0F22D033B6105E06A
:1021B0004FF41063C0F23D033B610FE00EE047F2C5
:1021C00030533B610AE04FF480033B6106E04FF47B
:1021D00000433B6102E04FF00003F5E0FB68002B99
:1021E00004DAFB6803F40063002B09D0FB68002BC2
:1021F000C0F2A7807B6903F40063002B40F0A1804C
:102200004FF46043C4F20F031A684FF00003C7F2A3
:10221000FF0313404FF00002C1F20502934237D191
:102220004EF26013C4F20F031B68BB604EF26413DE
:10223000C4F20F031B687B607B6803F4F8534FEA1A
:10224000132303F101037A6802F01F0202F1010275
:1022500002FB03F34FEA43033A69B2FBF3F33B613A
:10226000BB684FEA83534FEA93533A6902FB03F288
:10227000B9684FF47C43C0F20F030B404FEA93233D
:10228000396901FB03F34FEA9323D3183B6154E010
:102290004EF26403C4F20F031B68BB604FF460434B
:1022A000C4F20F031B6803F0E043002B0CD04FF483
:1022B0006043C4F20F031A684FF00003C7F2FF0334
:1022C0001340B3F1805F13D1BA6843F6E073134053
:1022D0004FEA531303F102033A6902FB03F2BB68AE
:1022E00003F01F0303F10203B2FBF3F33B6112E0BF
:1022F000BA6843F6E07313404FEA53133A6902FB9E
:1023000003F2BB6803F01F0303F101034FEA430329
:10231000B2FBF3F33B61BB6803F48043002B03D0B3
:102320003B694FEA53033B61BB6803F40043002B56
:1023300003D03B694FEA93033B617B6943F480031D
:102340007B617B6903F48003002B3CD0FB68002B8E
:102350002EDAFB6803F08043002B1DD0FB68002BB6
:1023600004DAFB6803F40063002B07D0FB68002B42
:1023700012DB7B6903F40063002B0DD13B694FEA4C
:102380004302FB6803F0FE534FEA935303F101034A
:10239000B2FBF3F33B6116E0FB6803F0FC534FEA3A
:1023A000D35303F101033A69B2FBF3F33B610AE053
:1023B0007B6903F0F0634FEAD35303F101033A69F9
:1023C000B2FBF3F33B613B69184607F11C07BD46BE
:1023D00080BC704780B584B002AF4FF46070C0F22B
:1023E000C010FFF79FFC4FF00100C0F21000FFF794
:1023F0003BFC4FF00100C2F20000FFF735FC4FF04C
:102400000200C2F20000FFF72FFC4FF00400C2F2FE
:102410000000FFF729FC4FF00800C2F20000FFF7B0
:1024200023FC4FF01000C2F20000FFF71DFC4FF03C
:1024300040204FF03C01FFF7F5FB4FF4A040C4F201
:1024400000004FF0FF01FFF7EDFB4FF4C040C4F276
:1024500000004FF01001FFF7E5FB4FF4E040C4F23D
:1024600000004FF00101FFF7DDFB4FF48040C4F2A4
:1024700002004FF00101FFF7BBFB4FF48040C4F2B4
:1024800002004FF001014FF001024FF00A03FFF785
:1024900095FAFFF7E1FB4FF40040C4F203004FF060
:1024A00003014FF000024FF00003FFF707F94FF46C
:1024B0000040C4F203004FF003014FF000024FF060
:1024C0006303FFF739F94FF40040C4F203004FF003
:1024D0000301FFF7DFF84FF40040C4F203004FF0B0
:1024E0000301FFF7C3F8FEF78DFEFEF7ABFE46F2E1
:1024F000FC33C4F2000346F2FC32C4F2000212685C
:1025000042F010021A604FF4784300934FF000033A
:1025100001934FF0000040F23F114FF000024FF0E6
:10252000EF03FEF74BFA4FF6FF70FEF717FB4FF085
:1025300001004FF0000146F67872C0F200024FF041
:102540000003FEF7FDF94FF002004FF0000146F6E0
:102550009C72C0F200024FF00003FEF7F1F94FF059
:1025600005004FF0020146F6BC72C0F200024FF0C7
:102570000003FEF7E5F94FF006004FF0020146F6C2
:10258000C872C0F200024FF00003FEF7D9F94FF015
:1025900007004FF0020146F6D872C0F200024FF079
:1025A0000003FEF7CDF94FF008004FF0020146F6A8
:1025B000E872C0F200024FF00003FEF7C1F94FF0DD
:1025C00009004FF0020146F6F872C0F200024FF027
:1025D0000003FEF7B5F94FF00A004FF0020147F291
:1025E0000802C0F200024FF00003FEF7A9F94FF015
:1025F0000B004FF0020147F21802C0F200024FF048
:102600000003FEF79DF94FF00C004FF0020147F276
:102610002802C0F200024FF00003FEF791F954E0E7
:102620004FF4784300934FF0000301934FF0000004
:1026300040F23F114FF000024FF01003FEF7BEF9D9
:10264000FFF7C6FC024648F21F53C5F2EB13A3FB8B
:1026500002134FEA13131846FFF760FB4FF00E000A
:102660004FF0080147F23802C0F200024FF00003B9
:10267000FEF766F9FFF7ACFC024648F21F53C5F2BD
:10268000EB13A3FB02134FEA13131846FFF746FBA5
:102690004FF48040C4F202004FF00101FFF794FABA
:1026A00003461A4641F2B053C2F200031A6041F2E7
:1026B000B053C2F200031B68002B06D140F66053F2
:1026C000C2F200034FF000021A6040F66053C2F2FB
:1026D00000031B68002BA3D14FF4784300934FF005
:1026E000000301934FF000004FF0EF014FF00002A4
:1026F0004FF0A003FEF762F94FF00D004FF0060116
:1027000047F25002C0F200024FF00003FEF718F942
:102710004FF00D004FF00A0147F25402C0F20002E0
:102720004FF00003FEF70CF94FF00D004FF00E01D3
:1027300047F25802C0F200024FF00003FEF700F922
:102740004FF00D004FF0120147F25C02C0F20002A0
:102750004FF00003FEF7F4F84FF00D004FF01601B4
:1027600047F26002C0F200024FF00003FEF7E8F803
:102770004FF00D004FF01A0147F26402C0F2000260
:102780004FF00003FEF7DCF84FF00D004FF01E0194
:1027900047F26802C0F200024FF00003FEF7D0F8E3
:1027A0004FF00D004FF0220147F26C02C0F2000220
:1027B0004FF00003FEF7C4F841F2BC53C2F200032D
:1027C0004FF000021A6061E041F2BC53C2F2000314
:1027D00019684AF6AB23CAF6AA23A3FB01234FEAE2
:1027E000131213464FEA43039B184FEAC303CA1A56
:1027F000002A3FD14FF40040C4F203004FF0030120
:10280000FFF774F800BF4FF40040C4F203004FF02C
:1028100003014FF00002FEF7EBFE0346002BF2D05F
:102820004FF40040C4F203004FF00301FEF71EFF17
:102830004FF40040C4F203004FF0030107F104031A
:102840001A46FFF721F841F2BC53C2F200031A689E
:102850004AF6AB23CAF6AA23A3FB02134FEA1312CC
:102860007B684FEA5303194640F6C463C2F2000383
:1028700043F8221041F2BC53C2F200031B6803F17B
:10288000010241F2BC53C2F200031A6041F2BC5390
:10289000C2F200031A6842F607039A4294D941F241
:1028A000F453C2F200034FF000021A6041F2C05329
:1028B000C2F200034FF000021A6041F28053C2F2EC
:1028C00000034FF000021A6041F28453C2F2000389
:1028D0004FF000021A6041F20063C2F200034FF0B1
:1028E00000021A6041F28853C2F200034FF0000266
:1028F0001A6041F20463C2F200034FF000021A6052
:1029000041F2B453C2F200034FF000021A6041F2E8
:10291000D053C2F200034FF000021A6041F290530C
:10292000C2F200034FF000021A6041F21063C2F2DB
:1029300000034FF000021A6041F2D453C2F20003C8
:102940004FF000021A6041F20863C2F200034FF038
:1029500000021A6041F29853C2F200034FF00002E5
:102960001A6041F27453C2F200034FF000021A6081
:1029700041F2FC53C2F200034FF000021A6041F230
:10298000A053C2F200034FF000021A60BFE141F20F
:10299000A053C2F200031A6844F27073C0F200033D
:1029A00053F822301846DFF8F41800F005FF03460C
:1029B000184601F051F8024641F2F053C2F200030A
:1029C0001A6041F2A053C2F200031A6844F61C6375
:1029D000C0F2000353F822301846DFF8C01800F0A8
:1029E000EBFE0346184601F037F8024641F2AC53BD
:1029F000C2F200031A6041F2A053C2F200031A6847
:102A000045F2C843C0F2000353F822301846DFF8FD
:102A10008C1800F0D1FE0346184601F01DF802465E
:102A200041F2EC53C2F200031A6041F2A053C2F229
:102A300000031A6845F67433C0F2000353F82230DD
:102A40001846DFF8581800F0B7FE0346184601F0A4
:102A500003F8024640F6C063C2F200031A6041F276
:102A6000A053C2F200031A6846F22023C0F200030A
:102A700053F822301846DFF8241800F09DFE034674
:102A8000184600F0E9FF024641F21863C2F2000363
:102A90001A6041F2A053C2F200031A6840F2080320
:102AA000C2F2000353F822301846DFF8F01700F0A6
:102AB00083FE0346184600F0CFFF024641F2E05382
:102AC000C2F200031A6041F2A053C2F200031A6876
:102AD00040F2B463C2F2000353F822301846DFF824
:102AE000BC1700F069FE0346184600F0B5FF024629
:102AF00041F28C53C2F200031A6041F2A053C2F2B9
:102B000000031A6846F6CC03C0F2000353F82230E3
:102B10001846DFF8881700F04FFE0346184600F00D
:102B20009BFF024641F2D853C2F200031A6041F201
:102B3000A053C2F200031B68C3F5D57240F6C4630C
:102B4000C2F2000353F822304FEA434241F21463C9
:102B5000C2F200031A6041F2F053C2F200031A6895
:102B600041F21463C2F200031B681046194600F0DC
:102B70001BFE024641F2D053C2F200031B68D2187A
:102B800041F2D053C2F200031A6041F2AC53C2F2D8
:102B900000031A6841F21463C2F200031B68104676
:102BA000194600F001FE024641F29053C2F20003C2
:102BB0001B68D21841F29053C2F200031A6041F22E
:102BC000EC53C2F200031A6841F21463C2F200032C
:102BD0001B681046194600F0E7FD024641F21063FB
:102BE000C2F200031B68D21841F21063C2F2000364
:102BF0001A6040F6C063C2F200031A6841F214631F
:102C0000C2F200031B681046194600F0CDFD0246D3
:102C100041F2D453C2F200031B68D21841F2D453DC
:102C2000C2F200031A6041F21863C2F200031A688C
:102C300041F21463C2F200031B681046194600F00B
:102C4000B3FD024641F20863C2F200031B68D218CA
:102C500041F20863C2F200031A6041F2E053C2F28B
:102C600000031A6841F21463C2F200031B681046A5
:102C7000194600F099FD024641F29853C2F2000352
:102C80001B68D21841F29853C2F200031A6041F255
:102C90008C53C2F200031A6841F21463C2F20003BB
:102CA0001B681046194600F07FFD024641F274533E
:102CB000C2F200031B68D21841F27453C2F200033F
:102CC0001A6041F2D853C2F200031A6841F2146349
:102CD000C2F200031B681046194600F065FD02466B
:102CE00041F2FC53C2F200031B68D21841F2FC53BC
:102CF000C2F200031A6041F2A053C2F200031B6843
:102D000003F1010241F2A053C2F200031A6041F242
:102D1000A053C2F200031B68B3F5D57F7FF637AE30
:102D200041F2D053C2F200031B684FEA634241F202
:102D3000F453C2F200031A6041F29053C2F200034E
:102D40001B684FEA634241F2C053C2F200031A60AB
:102D500041F21063C2F200031B684FEA634241F282
:102D60008053C2F200031A6041F2D453C2F200034E
:102D70001B684FEA634241F28453C2F200031A60B7
:102D800041F20863C2F200031B684FEA634241F25A
:102D90000063C2F200031A6041F29853C2F20003CA
:102DA0001B684FEA634241F28853C2F200031A6083
:102DB00041F27453C2F200031B684FEA634241F2CE
:102DC0000463C2F200031A6041F2FC53C2F2000332
:102DD0001B684FEA634241F2B453C2F200031A6027
:102DE00041F2F453C2F200031A6841F2F453C2F202
:102DF00000031B6803FB02F240F68053C2F200039B
:102E00001B68D21840F68053C2F200031A6041F2E8
:102E1000C053C2F200031A6841F2C053C2F2000369
:102E20001B6803FB02F240F68453C2F200031B68E6
:102E3000D21840F68453C2F200031A6041F2805364
:102E4000C2F200031A6841F28053C2F200031B6809
:102E500003FB02F240F68853C2F200031B68D2184B
:102E600040F68853C2F200031A6041F28453C2F262
:102E700000031A6841F28453C2F200031B6803FB8B
:102E800002F240F68C53C2F200031B68D21840F6DF
:102E90008C53C2F200031A6041F20063C2F20003D5
:102EA0001A6841F20063C2F200031B6803FB02F2DE
:102EB00040F69053C2F200031B68D21840F69053BC
:102EC000C2F200031A6041F28853C2F200031A688A
:102ED00041F28853C2F200031B6803FB02F240F682
:102EE0009453C2F200031B68D21840F69453C2F206
:102EF00000031A6041F20463C2F200031A6841F24F
:102F00000463C2F200031B6803FB02F240F698530D
:102F1000C2F200031B68D21840F69853C2F20003B5
:102F20001A6041F2B453C2F200031A6841F2B4537A
:102F3000C2F200031B6803FB02F240F69C53C2F28C
:102F400000031B68D21840F69C53C2F200031A60BB
:102F500040F67C53C2F200031B6803F1010240F605
:102F60007C53C2F200031A6040F67C53C2F20003A5
:102F70001B68022B40F0A28140F68053C2F200038E
:102F80001B6803F10302002BB8BF13464FEAA303EB
:102F90001A4640F68053C2F200031A6040F684538A
:102FA000C2F200031B6803F10302002BB8BF1346F3
:102FB0004FEAA3031A4640F68453C2F200031A6094
:102FC00040F68853C2F200031B6803F10302002B92
:102FD000B8BF13464FEAA3031A4640F68853C2F21D
:102FE00000031A6040F68C53C2F200031B6803F121
:102FF0000302002BB8BF13464FEAA3031A4640F65C
:103000008C53C2F200031A6040F69053C2F20003E0
:103010001B6803F10302002BB8BF13464FEAA3035A
:103020001A4640F69053C2F200031A6040F69453D9
:10303000C2F200031B6803F10302002BB8BF134662
:103040004FEAA3031A4640F69453C2F200031A60F3
:1030500040F69853C2F200031B6803F10302002BF1
:10306000B8BF13464FEAA3031A4640F69853C2F27C
:1030700000031A6040F69C53C2F200031B6803F180
:103080000302002BB8BF13464FEAA3031A4640F6CB
:103090009C53C2F200031A6040F68053C2F2000350
:1030A0001B681846FDF708FC03461A4641F22063E8
:1030B000C2F200031A6040F68453C2F200031B6898
:1030C0001846FDF7F9FB03461A4641F2F853C2F2DF
:1030D00000031A6040F68853C2F200031B681846CA
:1030E000FDF7EAFB03461A4641F27C53C2F20003A5
:1030F0001A6040F68C53C2F200031B681846FDF7B5
:10310000DBFB03461A4641F2A453C2F200031A60E5
:1031100040F69053C2F200031B681846FDF7CCFB43
:1031200003461A4641F21C63C2F200031A6040F6DD
:103130009453C2F200031B681846FDF7BDFB03461B
:103140001A4641F29C53C2F200031A6040F69C53A7
:10315000C2F200031B681846FDF7AEFB03461A4691
:1031600041F2CC53C2F200031A6040F69853C2F207
:1031700000031B681846FDF79FFB03461A4641F201
:10318000E453C2F200031A6040F69C53C2F20003FB
:103190004FF000021A6040F69C53C2F200031A6816
:1031A00040F69853C2F200031A6040F69853C2F2F8
:1031B00000031A6840F69453C2F200031A6040F606
:1031C0009453C2F200031A6840F69053C2F200030F
:1031D0001A6040F69053C2F200031A6840F68C530E
:1031E000C2F200031A6040F68C53C2F200031A6860
:1031F00040F68853C2F200031A6040F68853C2F2C8
:1032000000031A6840F68453C2F200031A6040F6C5
:103210008453C2F200031A6840F68053C2F20003DE
:103220001A6040F67C53C2F200034FF000021A60AD
:1032300041F22063C2F200031B681B2B0CD941F240
:103240002063C2F200031B68A3F1140241F2206361
:10325000C2F200031A600DE041F22063C2F20003E3
:103260001B681B2B06D841F22063C2F200034FF00B
:1032700000021A6041F2CC53C2F200031B68022B19
:103280000ED941F2CC53C2F200031B6803F1FF32A6
:1032900041F2CC53C2F200031A600FE00000004874
:1032A00041F2CC53C2F200031B68022B06D841F254
:1032B000CC53C2F200034FF000021A6041F22063C7
:1032C000C2F200031A6813464FEA83039B184FEAC1
:1032D000530303F128031A4641F2C853C2F2000314
:1032E0001A6041F2F853C2F200031A6813464FEA1B
:1032F00083039B1803F128031A4641F2DC53C2F200
:1033000000031A6041F27C53C2F200031A681346AC
:103310004FEA83039B1803F128031A4641F2B8537E
:10332000C2F200031A6041F2A453C2F200031A6809
:1033300013464FEA83039B1803F128031A4641F210
:10334000A853C2F200031A6041F21C63C2F20003E8
:103350001A6813464FEA83039B1803F128031A46A1
:1033600041F27053C2F200031A6041F29C53C2F260
:1033700000031A6813464FEA83039B1803F12803DE
:103380001A4641F2E853C2F200031A6041F2E453D4
:10339000C2F200031A6813464FEA83039B1803F135
:1033A00028031A4641F29453C2F200031A6041F214
:1033B000CC53C2F200031A6813464FEA83039B18EA
:1033C00003F128031A4641F2C453C2F200031A6003
:1033D00041F2C853C2F200031B689F2B06DD41F285
:1033E000C853C2F200034FF09F021A6041F2DC534F
:1033F000C2F200031B689F2B06DD41F2DC53C2F2D0
:1034000000034FF09F021A6041F2B853C2F200036A
:103410001B689F2B06DD41F2B853C2F200034FF048
:103420009F021A6041F2A853C2F200031B689F2B4F
:1034300006DD41F2A853C2F200034FF09F021A606A
:1034400041F27053C2F200031B689F2B06DD41F26C
:103450007053C2F200034FF09F021A6041F2E8532A
:10346000C2F200031B689F2B06DD41F2E853C2F253
:1034700000034FF09F021A6041F29453C2F200031E
:103480001B689F2B06DD41F29453C2F200034FF0FC
:103490009F021A6041F2C453C2F200031B689F2BC3
:1034A00006DD41F2C453C2F200034FF09F021A60DE
:1034B00041F2C853C2F200031B684FF6FF7200923C
:1034C0004FF0000201924FF030004FF031014FF009
:1034D0002802FDF773FA41F2C853C2F200031B68D9
:1034E0004FF4784200924FF0000201924FF030000A
:1034F0004FF031011A464FF0A003FDF75FFA41F299
:10350000DC53C2F200031B684FF6FF7200924FF0CB
:10351000000201924FF050004FF051014FF028028D
:10352000FDF74CFA41F2DC53C2F200031B684FF482
:10353000784200924FF0000201924FF050004FF09D
:1035400051011A464FF0A003FDF738FA41F2B85383
:10355000C2F200031B684FF6FF7200924FF00002A8
:1035600001924FF070004FF071014FF02802FDF70B
:1035700025FA41F2B853C2F200031B684FF47842B7
:1035800000924FF0000201924FF070004FF0710175
:103590001A464FF0A003FDF711FA41F2A853C2F208
:1035A00000031B684FF6FF7200924FF00002019279
:1035B0004FF090004FF091014FF02802FDF7FEF917
:1035C00041F2A853C2F200031B684FF47842009204
:1035D0004FF0000201924FF090004FF091011A4617
:1035E0004FF0A003FDF7EAF941F27053C2F2000375
:1035F0001B684FF6FF7200924FF0000201924FF0ED
:10360000B0004FF0B1014FF02802FDF7D7F941F2B9
:103610007053C2F200031B684FF4784200924FF0DF
:10362000000201924FF0B0004FF0B1011A464FF086
:10363000A003FDF7C3F941F2E853C2F200031B688F
:103640004FF6FF7200924FF0000201924FF0D0004F
:103650004FF0D1014FF02802FDF7B0F941F2E853E5
:10366000C2F200031B684FF4784200924FF0000250
:1036700001924FF0D0004FF0D1011A464FF0A00355
:10368000FDF79CF941F29453C2F200031B684FF618
:10369000FF7200924FF0000201924FF0F0004FF0E5
:1036A000F1014FF02802FDF789F941F29453C2F27B
:1036B00000031B684FF4784200924FF00002019221
:1036C0004FF0F0004FF0F1011A464FF0A003FDF764
:1036D00075F941F2C453C2F200031B684FF6FF7242
:1036E00000924FF0000201924FF4887040F21111E5
:1036F0004FF02802FDF762F941F2C453C2F2000311
:103700001B684FF4784200924FF0000201924FF490
:10371000887040F211111A464FF0A003FDF74EF9E0
:10372000FFF74AB880B582B000AF47F27003C0F22D
:1037300000037B6040F20003C2F200033B600BE039
:103740007B681A683B681A603B6803F104033B60BE
:103750007B6803F104037B603A6840F66453C2F26D
:1037600000039A42ECD3084808494FF0000288420F
:10377000B8BF40F8042BFFF6FAAFFEF72BFE07F1B7
:103780000807BD4680BD0000640D002024160020FF
:1037900080B400AFFEE700BF80B400AFFEE700BF1B
:1037A00080B400AFFEE700BF80FB01014FEA50404C
:1037B00000EBC130704700BF4FF0FF0C1CEAD05245
:1037C0001EBF1CEAD15392EA0C0F93EA0C0F6FD084
:1037D0001A4480EA010C400218BF5FEA41211ED062
:1037E0004FF0006343EA501043EA5111A0FB01314E
:1037F0000CF00040B1F5000F3EBF490041EAD37123
:103800005B0040EA010062F17F02FD2A1DD8B3F19E
:10381000004F40EBC25008BF20F00100704790F00D
:10382000000F0CF0004C08BF49024CEA502040EA5F
:1038300051207F3AC2BFD2F1FF0340EAC250704725
:1038400040F400004FF00003013A5DDC12F1190F63
:10385000DCBF00F000407047C2F10002410021FAD5
:1038600002F1C2F1200200FA02FC5FEA310040F1ED
:10387000000053EA4C0308BF20EADC70704792F066
:10388000000F00F0004C02BF400010F4000F013A9E
:10389000F9D040EA0C0093F0000F01F0004C02BF99
:1038A000490011F4000F013BF9D041EA0C018FE708
:1038B0000CEAD15392EA0C0F18BF93EA0C0F0AD00E
:1038C00030F0004C18BF31F0004CD8D180EA010034
:1038D00000F00040704790F0000F17BF90F0004FCD
:1038E000084691F0000F91F0004F14D092EA0C0FAF
:1038F00001D142020FD193EA0C0F03D14B0218BF42
:10390000084608D180EA010000F0004040F0FE4087
:1039100040F40000704740F0FE4040F44000704723
:103920004FF0FF0C1CEAD0521EBF1CEAD15392EAA2
:103930000C0F93EA0C0F69D0A2EB030280EA010C92
:1039400049024FEA402037D04FF0805343EA11112B
:1039500043EA10130CF000408B4238BF5B0042F189
:103960007D024FF4000C8B4224BF5B1A40EA0C002E
:10397000B3EB510F24BFA3EB510340EA5C00B3EB60
:10398000910F24BFA3EB910340EA9C00B3EBD10F4E
:1039900024BFA3EBD10340EADC001B0118BF5FEAA0
:1039A0001C1CE0D1FD2A3FF650AF8B4240EBC250C9
:1039B00008BF20F0010070470CF0004C4CEA50208A
:1039C0007F32C2BFD2F1FF0340EAC250704740F4D9
:1039D00000004FF00003013A37E792F0000F00F0CB
:1039E000004C02BF400010F4000F013AF9D040EA49
:1039F0000C0093F0000F01F0004C02BF490011F4DD
:103A0000000F013BF9D041EA0C0195E70CEAD153D4
:103A100092EA0C0F08D142027FF47DAF93EA0C0FBB
:103A20007FF470AF084676E793EA0C0F04D14B029F
:103A30003FF44CAF08466EE730F0004C18BF31F051
:103A4000004CCAD130F000427FF45CAF31F000434B
:103A50007FF43CAF5FE700BF4FEA4002B2F1FE4F98
:103A60000FD34FF09E03B3EB12620DD94FEA002340
:103A700043F0004310F0004F23FA02F018BF404219
:103A800070474FF00000704712F1610F01D1420200
:103A900005D110F0004008BF6FF0004070474FF0B4
:103AA000000070470000000000000000000000005F
:103AB0000000000000000000000007D0000000002F
:103AC00000000000000000000700000007000000E8
:103AD000000000000000012803F0052803F0052085
:103AE0000000000000000000012002B806A0024013
:103AF00000000000000000000000028005A002D0CD
:103B000000A0000000000060019002500270001050
:103B1000000000000000000000000700000000009E
:103B2000000000000000000001E006180000000096
:103B3000000000000000000000000000061801E086
:103B40000000000000000000020002800700028068
:103B50000200000000000080008007F0008000806C
:103B60000000000000000000000C00180010000021
:103B700000000000000000800080008000800080C5
:103B80000000000000000000000000100010000015
:103B900000000000000000000008003000C003002A
:103BA000040000000000000003E0041004100410F2
:103BB00003E00000000000000010041007F00010F7
:103BC00000100000000000000230045004900510B6
:103BD0000210000000000000022004100490049075
:103BE00003600000000000C00140025007F00050D8
:103BF00000000000000000000020079004900490E6
:103C000004600000000001E0029004900490046051
:103C1000000000000000000006000400043004C0A2
:103C2000070000000000036004900490049003600B
:103C300000000000000003100490049004A003C0E2
:103C40000000000000000000011001100000000052
:103C500000000000000000000018013001200000FA
:103C600000000000000000000080008001400140D2
:103C7000022000000000000001400140014001401E
:103C8000014000000000022001400140008000804F
:103C900000000000000000000200041004D0030037
:103CA000000000000000000003F0040804C805281C
:103CB00003E800000010003005D0064001D00030BD
:103CC000001000000000041007F00490049004901D
:103CD00003600000000003E004100410041006203C
:103CE000000000000000041007F00410041002207F
:103CF00001C0000000000000041007F0049005D08F
:103D0000063000000000041007F0049005C0060013
:103D100000000000000003E00410041004500660DE
:103D200000400000041007F004900080049007F0A9
:103D30000410000000000410041007F00410041028
:103D400000000000000000600410041007E0040000
:103D500000000000041007F00490008005400630C9
:103D6000041000000000041007F0041000100070A0
:103D7000000000000000041007F00710008007108A
:103D800007F004100000041007F0071000C0043012
:103D900007F00400000003E004100410041003E026
:103DA0000000000000000000041007F00450044070
:103DB000038000000000000003E004100418041851
:103DC00003E800000000041007F00450044003A0C2
:103DD00000100000000000000330049004900290E6
:103DE00006600000000000000600041007F0041048
:103DF000060000000000040007E00410001004109A
:103E000007E00400040007800470001004E00700CD
:103E100004000000040007E0041001E0041007E0C3
:103E20000400000000000410063001400080014042
:103E30000630041004000600051000F0051006000E
:103E40000400000000000630045004900510063005
:103E50000000000000000000000007F80408000057
:103E600000000000000000000400030000E0001853
:103E700000000000000000000000040807F8000037
:103E80000000000000000000010002000400020029
:103E9000010000000000000400040004000400040D
:103EA0000004000400000000000003000080000087
:103EB00000000000000000B001500150015000F06F
:103EC000001000000000041007F000900110011025
:103ED00000E00000000000E001100110011001905E
:103EE00000000000000000E001100110049007F045
:103EF000001000000000000000E0015001500150DF
:103F000000D0000000000000011003F005100510B3
:103F100000000000000000E001140114009401F80A
:103F2000010000000000041007F0009001000110E3
:103F300000F0001000000110011005F0001000104A
:103F400000000000000001040104050401F8000065
:103F5000000000000000041007F00040015001B014
:103F600001100000000000000010041007F0001015
:103F700000100000011001F0011000F0011000F02D
:103F8000001000000000011001F00090010001107D
:103F900000F000100000000000E00110011001100E
:103FA00000E0000000000000010401FC009401108A
:103FB000011000E0000000E001100110009401FC7D
:103FC0000104000000000000011001F00090011049
:103FD000010000000000009001500150015001203C
:103FE000000000000000010003E0011001100110BA
:103FF000002000000000010001E00010001001207E
:1040000001F000100000010001C00130001001604B
:10401000018001000000010001E0011000600110BA
:1040200001E0010000000000011001B0004001B0FB
:10403000011000000000010001840164001C016007
:10404000018001000000000001900130015001904A
:104050000130000000000000008007F008080000A8
:104060000000000000000000000007F80000000051
:1040700000000000000000000000080807F00080B9
:104080000000000000000040008000C000400080F0
:104090000000000000000000000000000000000020
:1040A00000000000000000E001100110011000E01D
:1040B00000000000000000E001100170011000E0AD
:1040C0000000000007F0001001D0011000D0011026
:1040D00001E0000000E001100130010000F00100EB
:1040E00000F000000060009000900110017001508D
:1040F0000610000000E000900710061002D002E059
:1041000004100000000000000400036001700110B2
:1041100000E0000000E0011001300080011005F017
:10412000023001C000E0011001200120009000B029
:1041300000B0070000600390029002B002B00600D9
:10414000000000000000030005F00500040003F07B
:1041500000000000000003800580040007F000104C
:1041600007F000000000038004F005800200040056
:1041700003F0000000000380047004C0040003F09A
:10418000000000000000038004F00580020004002D
:1041900003F000000380028005B003F0002000203F
:1041A00003F000000000000000C00060063007F0CF
:1041B000000000000000000004C004F0041003F040
:1041C000000000000000018005F00420042003F03E
:1041D0000030000000000700050007F0021003E0B7
:1041E00004000000000003800580020007F00210B8
:1041F00005F00000033005F00500043003F0002056
:1042000007F00000030005F00530040003E6001687
:10421000001207E600000000033005F6050E040C4E
:1042200003FE000000000000033005F6050E040A3E
:1042300003FE00000000000000020663067506177A
:1042400005F7000007800380040007F00300040066
:1042500003F0000003C0063006C00300043003F082
:10426000002007F0030005F00530040003F00020F3
:1042700007F0003000000380067005400580040050
:1042800003F00000000003800470062003C0040057
:1042900003F0000000000000030005F005300400FA
:1042A00003F000000000060007F001800600040093
:1042B00007F00000000000000000071005F0029069
:1042C00006F0000000000000060007F0002000706B
:1042D00007F0000000000000061007F000100010BA
:1042E00007F0000000000000060007F000100010BA
:1042F0007FF000000000000007F006400080004052
:1043000007F000000000000007F0064000800040B9
:104310003FF000000000060007F001C0070000C0E9
:1043200007F000000000060007F001C0070000C011
:104330003FF0000000000000033005F0050004001D
:1043400003F0000000000000063007F0002000101D
:1043500007F000000000000007F0069000100010B9
:1043600007F000000000000000000200050005301A
:1043700005F0000000000000040005F00530050015
:1043800003F00000000000000200040004000430FC
:1043900003F0000000000000030005F005800500A8
:1043A00007F0000000000000061007F000D00050E9
:1043B00007F000000000040005F00530050003F0E0
:1043C0000600000000000000060007F00080070063
:1043D00007F000000000060003F00060038004E026
:1043E00007F004000000000004F004D0041003E013
:1043F000000000000000000005E00590041007E048
:104400000000000000000330033001100110022002
:10441000000000000000000004000400040003F09D
:10442000000000000000300050005000500030003C
:10443000000000000000000030005000500050005C
:10444000F000000000000000000000000000000676
:104450000007000000000000000000060007000147
:10446000000700000000200050002FF06030000026
:104470000000000000000000000007F00030000015
:10448000000000000000000007F00030000007F00E
:1044900000300000000000000000000000003000BC
:1044A0003000000000000000000003F005300400B0
:1044B00003FE000000000000038000800380040071
:1044C00007F00000000000000000000000000000F5
:1044D000038000000000000000000000068007804C
:1044E00001000600000000000000038002000380BD
:1044F00000800300000000000000000003000280B4
:10450000028006800000000000000100038001001E
:1045100000000000000000000000000000C0034098
:104520000400000000000000000000000000000087
:10453000000000000000000000000000000000007B
:10454000000000000000000000000000000000006B
:10455000000000000000000000000000000000005B
:10456000000000000000000000000000000000004B
:10457000000000000000000000000000000000003B
:10458000000000000000000000000000000000002B
:10459000000000000000000000000000000000001B
:1045A0000000000010E00F4014E00F401CE00F403E
:1045B00010E00F4040E00F4044E00F4048E00F4063
:1045C00000E10F4004E10F4008E10F4010E10F400F
:1045D00014E10F4018E10F4020E10F4024E10F40AB
:1045E00028E10F4040420F0000201C0080841E0084
:1045F00000802500999E36000040380000093D00EB
:1046000000803E0000004B00404B4C0000204E005C
:10461000808D5B0000C05D000080700000127A0099
:1046200000007D0080969800001BB7000080BB0052
:10463000C0E8CE00647ADA000024F4000000FA003A
:1046400080A81201002D310100366E0140787D01F5
:1046500001001000003800F002001000013800F0E6
:1046600000011000003400F000021000013400F0DE
:1046700000041000023400F000011010003C00F0B3
:1046800000021010003C00F000041010003C00F08C
:1046900001000020000800F002000020010800F0E6
:1046A00004000020020800F008000020030800F0C9
:1046B00010000020040800F020000020050800F091
:1046C00040000020060800F080000020070800F0ED
:1046D00000010020080800F040000000001400F075
:1046E00000100010002000F000400010012000F039
:1046F00010001000004000F000010010004400F025
:1047000000020010014400F010000010001C00F036
:1047100020000010011C00F001001010000400F047
:1047200002001010010400F004001010020400F058
:1047300008001010030400F001000010001800F041
:1047400002000010011800F004000010021800F030
:1047500000200020000C00F001001020002800F0D4
:1047600008000000000000F000101000010000F040
:10477000BD370637BD3706369C5349369C534936FC
:104780009C534936BD378636BD378636BD378636AB
:10479000ACC5A736ACC5A736ACC5A7369C53C93641
:1047A0009C53C9369C53C9369C53C9369C53C93651
:1047B0009C53C9369C53C936ACC5A736ACC5A73681
:1047C000BD3786369C534936BD370636000000009B
:1047D000BD3706B6BD3786B68BE1EAB6ACC527B79E
:1047E000931A5AB7399B8EB72829B0B7931ADAB7FC
:1047F000BD3706B830621FB820F040B80F7E62B8EF
:10480000FF0582B8B5FE96B84910AEB8DE21C5B82E
:104810003065E0B861C1FDB8399B0EB9A06E20B912
:10482000774E33B9BD3A47B9E23F5DB9765174B9B5
:10483000F5BD86B99E5F94B9B70DA3B93FC8B2B9AB
:10484000FF08C3B966DCD4B93CBCE7B982A8FBB9A0
:104850009C5008BA4A9613BA30621FBA6AF72BBA4C
:10486000DC1239BAA1F746BA9E6255BAEE9664BA1E
:10487000AED774BAC5AD82BAEA758BBABAA294BA89
:1048800033349EBA562AA8BA2385B2BA9A44BDBA1E
:10489000BA68C8BA84F1D3BAF8DEDFBA1631ECBA16
:1048A0006C09F9BA6F1203BB7CD209BBA6D510BB49
:1048B0005DFA17BB69511FBBCBDA26BBBA852EBB8D
:1048C000FE6236BB97723EBBBEA346BB73F64EBBC1
:1048D0007C7B57BB4D1160BB73D968BB5FB271BBAA
:1048E000139C7ABBAAD381BBAE6186BB16F88ABB88
:1048F0007E8E8FBBAD3594BB78D498BB43739DBB84
:104900000E12A2BBD9B0A6BB4147ABBBE2CCAFBB3A
:104910008352B4BBF9BEB8BB0C23BDBBF46DC1BBA5
:1049200015A8C5BBA9C0C9BB75C8CDBB50A6D1BB16
:10493000016BD5BB240ED9BB5587DCBB95D6DFBB3D
:1049400080F3E2BB79E6E5BB1EA7E8BB0A2DEBBB13
:10495000A180EDBB1D91EFBBE066F1BBEB01F3BBAA
:104960007651F4BBE65DF5BBD61EF6BBAA9CF6BB42
:104970009BC6F6BBAA9CF6BB3927F6BBE65DF5BB2A
:104980004C38F4BBCFBEF2BB0CE9F0BB02B7EEBBB8
:10499000B328ECBB1D3EE9BBDDEEE5BB5743E2BBF4
:1049A0008A3BDEBBB0C6D9BB90F5D4BBC6BFCFBB7C
:1049B0005325CABB3526C4BBD1CABDBBC40AB7BBCD
:1049C0000CE6AFBB0E65A8BBCA87A0BBDD4598BB94
:1049D000A8A78FBB2EAD86BBA1BD7ABB5A6867BBAB
:1049E000137C53BB41D73EBB6F9B29BB66D913BB1E
:1049F0002FDFFABA22FFCCBAA5129EBA8E765CBA25
:104A00001DE4F5B962BEBCB83BAA9A399291333A1B
:104A1000C98E8D3A8FFCC13AFFCEF63A0C03163B95
:104A2000EED0303B5DC04B3B5BD1663B2CF1803B15
:104A3000AB798E3BC6F99B3B7E71A93BD2E0B63B7E
:104A4000992EC43B986BD13BA67EDE3B2670EB3B98
:104A5000B537F83B7766023CB893083C9CA30E3C04
:104A6000F391143CBB5E1A3C9301203CAA7E253C8A
:104A7000D0D12A3CA1F22F3C4FE5343CA9A5393CCA
:104A8000AD333E3C2A8B423CF0A7463CFC894A3C75
:104A90001F2D4E3C8995513C0ABF543C6EA5573C96
:104AA000E84C5A3C15AD5C3CF4C55E3CB79B603CA1
:104AB0005E2E623C8675633C6075643CBB29653C38
:104AC000C896653C88BC653CC896653CBB29653C7E
:104AD0006075643C8675633C5E2E623CB79B603CAF
:104AE000F4C55E3C15AD5C3CE84C5A3C6EA5573CA9
:104AF0000ABF543C8995513C1F2D4E3CFC894A3CD1
:104B0000F0A7463C2A8B423CAD333E3CA9A5393C3C
:104B10004FE5343CA1F22F3CD0D12A3CAA7E253C63
:104B20009301203CBB5E1A3CF391143C9CA30E3CC9
:104B3000B893083C7766023CB537F83B2670EB3BF0
:104B4000A67EDE3B986BD13B992EC43BD2E0B63BB0
:104B50007E71A93BC6F99B3BAB798E3B2CF1803B28
:104B60005BD1663B5DC04B3BEED0303B0C03163B4C
:104B7000FFCEF63A8FFCC13AC98E8D3A9291333A04
:104B80003BAA9A3962BEBCB81DE4F5B98E765CBA10
:104B9000A5129EBA22FFCCBA2FDFFABA66D913BB90
:104BA0006F9B29BB41D73EBB137C53BB5A6867BB85
:104BB000A1BD7ABB2EAD86BBA8A78FBBDD4598BB38
:104BC000CA87A0BB0E65A8BB0CE6AFBBC40AB7BBC7
:104BD000D1CABDBB3526C4BB5325CABBC6BFCFBBDC
:104BE00090F5D4BBB0C6D9BB8A3BDEBB5743E2BB12
:104BF000DDEEE5BB1D3EE9BBB328ECBB02B7EEBB67
:104C00000CE9F0BBCFBEF2BB4C38F4BBE65DF5BBA4
:104C10003927F6BBAA9CF6BB9BC6F6BBAA9CF6BB83
:104C2000D61EF6BBE65DF5BB7651F4BBEB01F3BBDC
:104C3000E066F1BB1D91EFBBA180EDBB0A2DEBBB84
:104C40001EA7E8BB79E6E5BB80F3E2BB95D6DFBBE8
:104C50005587DCBB240ED9BB016BD5BB50A6D1BB9D
:104C600075C8CDBBA9C0C9BB15A8C5BBF46DC1BB78
:104C70000C23BDBBF9BEB8BB8352B4BBE2CCAFBB07
:104C80004147ABBBD9B0A6BB0E12A2BB43739DBBC1
:104C900078D498BBAD3594BB7E8E8FBB16F88ABB9B
:104CA000AE6186BBAAD381BB139C7ABB5FB271BBDA
:104CB00073D968BB4D1160BB7C7B57BB73F64EBB91
:104CC000BEA346BB97723EBBFE6236BBBA852EBB07
:104CD000CBDA26BB69511FBB5DFA17BBA6D510BB4B
:104CE0007CD209BB6F1203BB6C09F9BA1631ECBA5E
:104CF000F8DEDFBA84F1D3BABA68C8BA9A44BDBA4A
:104D00002385B2BA562AA8BA33349EBABAA294BA44
:104D1000EA758BBAC5AD82BAAED774BAEE9664BAEC
:104D20009E6255BAA1F746BADC1239BA6AF72BBAB5
:104D300030621FBA4A9613BA9C5008BA82A8FBB9CF
:104D40003CBCE7B966DCD4B9FF08C3B93FC8B2B907
:104D5000B70DA3B99E5F94B9F5BD86B9765174B904
:104D6000E23F5DB9BD3A47B9774E33B9A06E20B97D
:104D7000399B0EB961C1FDB83065E0B8DE21C5B818
:104D80004910AEB8B5FE96B8FF0582B80F7E62B87E
:104D900020F040B830621FB8BD3706B8931ADAB7B2
:104DA0002829B0B7399B8EB7931A5AB7ACC527B725
:104DB0008BE1EAB6BD3786B6BD3706B60000000007
:104DC000BD3706369C534936BD378636ACC5A73647
:104DD000ACC5A7369C53C9369C53C9369C53C936BB
:104DE0009C53C9369C53C9369C53C9369C53C9360B
:104DF000ACC5A736ACC5A736ACC5A736BD37863619
:104E0000BD378636BD3786369C5349369C53493666
:104E10009C534936BD370636BD370637ACC52737F4
:104E20009C53C936BD370637ACC52737931A5A3756
:104E3000BD37863730629F37A48CB837931ADA377C
:104E400082A8FB37399B0E38EE932338A48C383870
:104E500059854D380F7E6238C5767738BD3786382C
:104E600018B4903894179938EE93A3388BDEA9388C
:104E70000742B238C573B63883A5BA3862BEBC38AB
:104E800062BEBC3883A5BA38C573B6384910AE388F
:104E9000EE93A338B5FE9638BD378638CDAF663869
:104EA000A48C3838FF050238399B8E37BD3706365B
:104EB0008BE16AB7BD3706B817B751B8F7CC92B8CF
:104EC00062BEBCB8CDAFE6B89C5008B952491DB916
:104ED000983531B96E1544B966DC54B9EE9664B9AB
:104EE000282C71B982A87BB9C77F81B96F1283B9A9
:104EF0006F1283B9587380B9C57677B9ACC868B9F1
:104F000066DC54B9F2B13BB952491DB90745F3B853
:104F100030629FB8FF0502B830629F379417993806
:104F20000B5D09397A6C4B3964CA87393271AB39F8
:104F3000389ECF397651F4395A820C3AC1551E3A0F
:104F4000F0A22F3ACC26403A01184F3AAAB95C3A5F
:104F50007442683A5FB2713A3483783AD6717C3AD7
:104F60000EF87C3AF7587A3A3ECB733AC80B693A56
:104F7000AF5D5A3AA1F7463AD45F2F3A2E53133A0F
:104F8000261DE53903249A39C98E0D39ACC527B8D9
:104F9000973872B9EE96E4B9172E2BBA053667BA70
:104FA000F7CC92BA3FC8B2BADA8CD3BA0473F4BA67
:104FB00097AC0ABB90DC1ABB18972ABB139939BB74
:104FC000BBD147BB66DC54BB859760BBFDBF6ABBEA
:104FD000792373BBA38F79BB28D27DBBB2B87FBBCB
:104FE000ED107FBB49B97BBB3A9075BB32746CBB8B
:104FF000695460BBE03051BB96093FBBFDBC29BB87
:105000006B7D11BBC095ECBA60AFB0BAA5155FBAA5
:10501000CDACA5B916A58439A5155F3A3C33C13A84
:105020005EBD0A3BFFCB353B9F71613B679C863B76
:10503000705E9C3BCFBBB13B3082C63BD976DA3B3E
:10504000B056ED3BFBE6FE3B8176073C07970E3CF6
:10505000E4BB143CBDC7193CCAA91D3C7D40203CA3
:105060007383213C8159213C45BA1F3C28991C3C43
:10507000C8ED173C56BC113C6EFC093C74B6003CB4
:10508000FAEDEB3BDA8CD33B166BB83B02BB9A3B99
:10509000E65D753B7CF2303BFB73D13A1BD5E939B9
:1050A0001B4C43BAC9E800BB4F3D52BB6A1492BBCC
:1050B00066F9BABB8D60E3BBCD7605BCF19D18BC2B
:1050C0005EF32ABC234D3CBCB8744CBC5F445BBC53
:1050D000C28968BC211F74BCEFE27DBCCFD982BC01
:1050E00002BC85BC488787BC723788BC01C287BCBC
:1050F000C42286BCBC5983BC03D27EBC59A574BCF7
:10510000423E68BC86AD59BC801049BC5A8036BC52
:10511000072722BC452A0CBC0E68E9BBA5F5B7BB26
:10512000FA6184BBFA441EBBDE2145BACA1A753A3D
:105130004D4B2C3B9F758D3B0B0DC43B7976F93B5A
:10514000A791163C71572F3CE1D1463C0DC25C3C07
:10515000D3F9703C87A5813CCEC3893CC6C2903C44
:10516000C093963C282A9B3C4F779E3C0377A03CFB
:10517000E220A13C0377A03C4F779E3C282A9B3C31
:10518000C093963CC6C2903CCEC3893C87A5813C67
:10519000D3F9703C0DC25C3CE1D1463C71572F3CC9
:1051A000A791163C7976F93B0B0DC43B9F758D3B5F
:1051B0004D4B2C3BCA1A753ADE2145BAFA441EBB48
:1051C000FA6184BBA5F5B7BB0E68E9BB452A0CBCE8
:1051D000072722BC5A8036BC801049BC86AD59BC1A
:1051E000423E68BC59A574BC03D27EBCBC5983BC8A
:1051F000C42286BC01C287BC723788BC488787BC82
:1052000002BC85BCCFD982BCEFE27DBC211F74BC3F
:10521000C28968BC5F445BBCB8744CBC234D3CBCC9
:105220005EF32ABCF19D18BCCD7605BC8D60E3BB56
:1052300066F9BABB6A1492BB4F3D52BBC9E800BBCA
:105240001B4C43BA1BD5E939FB73D13A7CF2303B96
:10525000E65D753B02BB9A3B166BB83BDA8CD33BE1
:10526000FAEDEB3B74B6003C6EFC093C56BC113CBD
:10527000C8ED173C28991C3C45BA1F3C8159213C7C
:105280007383213C7D40203CCAA91D3CBDC7193C0D
:10529000E4BB143C07970E3C8176073CFBE6FE3BE3
:1052A000B056ED3BD976DA3B3082C63BCFBBB13B43
:1052B000705E9C3B679C863B9F71613BFFCB353B9F
:1052C0005EBD0A3B3C33C13AA5155F3A16A5843949
:1052D000CDACA5B9A5155FBA60AFB0BAC095ECBAB0
:1052E0006B7D11BBFDBC29BB96093FBBE03051BBB8
:1052F000695460BB32746CBB3A9075BB49B97BBBD7
:10530000ED107FBBB2B87FBB28D27DBBA38F79BB2A
:10531000792373BBFDBF6ABB859760BB66DC54BB5A
:10532000BBD147BB139939BB18972ABB90DC1ABB7A
:1053300097AC0ABB0473F4BADA8CD3BA3FC8B2BADA
:10534000F7CC92BA053667BA172E2BBAEE96E4B9A7
:10535000973872B9ACC527B8C98E0D3903249A396C
:10536000261DE5392E53133AD45F2F3AA1F7463A5A
:10537000AF5D5A3AC80B693A3ECB733AF7587A3A5E
:105380000EF87C3AD6717C3A3483783A5FB2713A3F
:105390007442683AAAB95C3A01184F3ACC26403AAE
:1053A000F0A22F3AC1551E3A5A820C3A7651F4397E
:1053B000389ECF393271AB3964CA87397A6C4B3930
:1053C0000B5D09399417993830629F37FF0502B891
:1053D00030629FB80745F3B852491DB9F2B13BB9E5
:1053E00066DC54B9ACC868B9C57677B9587380B96A
:1053F0006F1283B96F1283B9C77F81B982A87BB955
:10540000282C71B9EE9664B966DC54B96E1544B9AE
:10541000983531B952491DB99C5008B9CDAFE6B89D
:1054200062BEBCB8F7CC92B817B751B8BD3706B852
:105430008BE16AB7BD370636399B8E37FF050238D8
:10544000A48C3838CDAF6638BD378638B5FE96386F
:10545000EE93A3384910AE38C573B63883A5BA3871
:1054600062BEBC3862BEBC3883A5BA38C573B638D4
:105470000742B2388BDEA938EE93A33894179938D7
:1054800018B49038BD378638C57677380F7E6238C5
:1054900059854D38A48C3838EE932338399B0E3813
:1054A00082A8FB37931ADA37A48CB83730629F375B
:1054B000BD378637931A5A37ACC52737BD370637FD
:1054C0009C53C936ACC52737BD3706379C53493680
:1054D000BD370636BD3786B59C53C9B68BE16AB772
:1054E000931ADAB76AF72BB840DA7FB8E65AB4B83D
:1054F000282CF1B873301BB98FFC41B98BE16AB924
:1055000043E389B989CF9DB9B91CAFB962BEBCB9B3
:10551000A69BC4B915A8C5B9D1CABDB96AF7ABB9BC
:1055200071218FB959854DB9BD3AC7B80F7EE237A1
:1055300028293039C364AA39AC3C013A49102E3AC3
:10554000931A5A3AC77F813AA131933A6616A13A23
:105550008BDEA93A309FAC3A726DA83AA8E49C3A27
:1055600027A0893A19C65D3AE7E0193A2E539339D4
:10557000BD3786B87E8AE3B9B9A555BAE23C9CBA74
:10558000B5C4CABAE82FF4BACF320BBB08C817BBF0
:1055900087FD1EBB4B3C20BB3A411BBB520C10BBD2
:1055A000D39FFDBA8C67D0BA91459ABA67623ABA6E
:1055B000C1585FB903249A39E5D44E3AEE93A33A21
:1055C000D044D83A1CB2013BA46C113B02BB1A3B3D
:1055D000DF6A1D3B3D7C193B1A860F3B0341003BB4
:1055E0005B94D93ADA03AD3A67657B3A6D8C1D3A24
:1055F00022FC8B39A48CB8B76F1283B92E56D4B95C
:1056000082A8FBB9A38FF9B9E030D1B9D4D688B953
:10561000EE93A3B84E2B05394910AE39D97A063A24
:105620001CD2283AF855393A774E333A821C143A4C
:105630005567B53982A8FB378FFCC1B93AAD5BBA63
:1056400060AFB0BAE65DF5BAAAB61BBB314539BB4F
:105650006E5251BBD7F761BBFF9169BBCC4667BBAC
:105660003D7F5ABBE25C43BBD4B922BBCCECF3BA5E
:1056700045F295BAE869C0B968EBE039FBAD9D3AEF
:105680002FDFFA3A787A253BC2DE443B213C5A3B75
:10569000EE96643B61DE633B08CB583BDF8A443BBC
:1056A0003815293B9BE7083BCC63CD3A97AC8A3A47
:1056B000C1551E3AD1CD7E399C53C936C573B6B893
:1056C0000F7EE2B762BE3C39800D083A4B227B3A2E
:1056D000EB3BBF3AAC3C013B4B3C203BA323393B6B
:1056E000488A483BCF9E4B3B5A48403B9626253B39
:1056F0005A0EF43A24977F3AACC8E8B87CF2B0BAB4
:10570000B7B32FBB422784BBABAFAEBBC9E4D4BB9E
:105710003D62F4BB307F05BC158F0BBCFFCD0BBCCD
:10572000CC0D06BC11E0F4BBDCF5D2BBC808A8BBAD
:10573000DCD86CBB1CB201BB9626A5B9E44BA83AD9
:1057400078B7323B2CF1803B07B29E3B9835B13B9A
:10575000DEE4B73BF702B33B19ADA33B94DA8B3BD6
:10576000C7655C3B71C71B3BA1BAB93A57ED1A3A02
:10577000BD3706360B5D89B9C98E0DB97233DC3978
:1057800032AEB83AFB90373B0168943B3BC3D43B05
:10579000D34B0C3CE7702D3C66144B3C7A71623C59
:1057A00045D8703C30F5733CB1E1693C986B513C95
:1057B00012152A3C5796E83B6C43453BB43EE5BA8C
:1057C0007B4FE5BBF0FA4CBC0ABC93BCACCABEBC78
:1057D000F759E5BCCC9802BDED280EBD458314BD3C
:1057E0007D0915BD355D0FBD906B03BDA0E0E2BC2A
:1057F000A7E9B3BC452B77BC4641F0BBC77F813AD4
:105800005B061C3C82AD923C1F11D33CEA25063D51
:1058100082E41D3D6DAD2F3DF3AE3A3D27693E3D1F
:10582000F3AE3A3D6DAD2F3D82E41D3DEA25063DC8
:105830001F11D33C82AD923C5B061C3CC77F813A72
:105840004641F0BB452B77BCA7E9B3BCA0E0E2BC66
:10585000906B03BD355D0FBD7D0915BD458314BD3E
:10586000ED280EBDCC9802BDF759E5BCACCABEBC54
:105870000ABC93BCF0FA4CBC7B4FE5BBB43EE5BA26
:105880006C43453B5796E83B12152A3C986B513CBC
:10589000B1E1693C30F5733C45D8703C7A71623CAB
:1058A00066144B3CE7702D3CD34B0C3C3BC3D43BC4
:1058B0000168943BFB90373B32AEB83A7233DC3927
:1058C000C98E0DB90B5D89B9BD37063657ED1A3A49
:1058D000A1BAB93A71C71B3BC7655C3B94DA8B3BF5
:1058E00019ADA33BF702B33BDEE4B73B9835B13BC0
:1058F00007B29E3B2CF1803B78B7323BE44BA83A91
:105900009626A5B91CB201BBDCD86CBBC808A8BBE5
:10591000DCF5D2BB11E0F4BBCC0D06BCFFCD0BBC5B
:10592000158F0BBC307F05BC3D62F4BBC9E4D4BB12
:10593000ABAFAEBB422784BBB7B32FBB7CF2B0BAD0
:10594000ACC8E8B824977F3A5A0EF43A9626253B1D
:105950005A48403BCF9E4B3B488A483BA323393BA8
:105960004B3C203BAC3C013BEB3BBF3A4B227B3AF0
:10597000800D083A62BE3C390F7EE2B7C573B6B8F7
:105980009C53C936D1CD7E39C1551E3A97AC8A3A5F
:10599000CC63CD3A9BE7083B3815293BDF8A443B73
:1059A00008CB583B61DE633BEE96643B213C5A3B9F
:1059B000C2DE443B787A253B2FDFFA3AFBAD9D3AB5
:1059C00068EBE039E869C0B945F295BACCECF3BAB6
:1059D000D4B922BBE25C43BB3D7F5ABBCC4667BB1C
:1059E000FF9169BBD7F761BB6E5251BB314539BBE3
:1059F000AAB61BBBE65DF5BA60AFB0BA3AAD5BBA0A
:105A00008FFCC1B982A8FB375567B539821C143A9F
:105A1000774E333AF855393A1CD2283AD97A063AB1
:105A20004910AE394E2B0539EE93A3B8D4D688B9B8
:105A3000E030D1B9A38FF9B982A8FBB92E56D4B9F9
:105A40006F1283B9A48CB8B722FC8B396D8C1D3AC8
:105A500067657B3ADA03AD3A5B94D93A0341003B80
:105A60001A860F3B3D7C193BDF6A1D3B02BB1A3B8C
:105A7000A46C113B1CB2013BD044D83AEE93A33A3C
:105A8000E5D44E3A03249A39C1585FB967623ABAED
:105A900091459ABA8C67D0BAD39FFDBA520C10BB0D
:105AA0003A411BBB4B3C20BB87FD1EBB08C817BB44
:105AB000CF320BBBE82FF4BAB5C4CABAE23C9CBAE9
:105AC000B9A555BA7E8AE3B9BD3786B82E53933946
:105AD000E7E0193A19C65D3A27A0893AA8E49C3A4A
:105AE000726DA83A309FAC3A8BDEA93A6616A13A9D
:105AF000A131933AC77F813A931A5A3A49102E3A04
:105B0000AC3C013AC364AA39282930390F7EE23708
:105B1000BD3AC7B859854DB971218FB96AF7ABB98C
:105B2000D1CABDB915A8C5B9A69BC4B962BEBCB9D6
:105B3000B91CAFB989CF9DB943E389B98BE16AB983
:105B40008FFC41B973301BB9282CF1B8E65AB4B8B0
:105B500040DA7FB86AF72BB8931ADAB78BE16AB7E5
:105B60009C53C9B6BD3786B5BD3706369C534936FA
:105B7000BD3706378BE16A37BD37863720F0C0372F
:105B800082A8FB3773301B38E65A343820F040388F
:105B900062BE3C38EE932338931ADA379C53C936E9
:105BA000ACC5A7B70F7E62B8DE21C5B818B410B96E
:105BB00020F040B949136FB9EA758BB903249AB93B
:105BC000A06EA0B9E23C9CB9EA758BB9931A5AB998
:105BD00061C1FDB8B5FE16B76F12033901158E39D4
:105BE0003AADDB396B7D113A118A2D3AD1CA3D3A73
:105BF000ED0D3E3A6AF72B3A4E2B053A45F29539B0
:105C0000BD3706B6F0A2AFB9929133BADB4C85BA74
:105C10005358A9BAAE11C1BA9E25C8BAD66EBBBA3E
:105C2000E7E099BA64CD48BA765174B964CDC83901
:105C3000A1F4853A84F1D33A608F093B6D8C1D3B0A
:105C40009BCA223B5E63173B71ADF63AD8F4A03A8B
:105C5000BF49D339BD3706BA83A5BABA312512BBBD
:105C6000BDFD39BB1BF24FBBFDDC50BB0EF53BBB92
:105C7000131013BB5839B4BA4B1FBAB9DC12393AF6
:105C80007061DD3A29EC223B6C43453B882C523B4A
:105C900064CD483B6DC92A3BDEE7F83A64CA873ACF
:105CA000DE1E04399A443DBA6A34B9BAAB05F6BA75
:105CB0009C5008BBA4C604BB234BE6BA7EC4AFBA53
:105CC000D7F761BA9E62D5B959854DB88BDE2939AF
:105CD00072335C394913EF38EE93A3B803249AB9B1
:105CE000118DEEB90954FFB90742B2B9BD378636F6
:105CF0000B5D093AB22C983A118DEE3AE1D31C3B78
:105D0000C845353B2E733A3B726D283BF2B4FC3AE2
:105D1000D6717C3A074573B9D87DC7BA3CF633BB18
:105D20001F4D75BB9B3A8FBB8F8994BBE14389BBE9
:105D300055875CBB59190DBBFDF936BA7C7B573AC8
:105D4000F99E113BE84C5A3BC2DB833B5EBD8A3B6C
:105D50000EDC813B45F5563B9752173B4F779E3AF9
:105D6000B5FE163920F040BABBEEADBAAA7CCFBA68
:105D7000D87DC7BA68E89FBA33FA51BA2E56D4B95B
:105D8000B91C2FB98FFC41B9C2DB03BAFF428FBAED
:105D90005A0EF4BA9E422EBB257758BB87A66CBB21
:105DA000BD1D61BB446C30BBFFCBB5BA2C47C839B5
:105DB000C0EC1E3B4CFF923BBD8DCD3BAB05F63B93
:105DC000707B023CE4F4F53B488AC83BBB7B803BDC
:105DD00029AF953A8A1EF8BAD1949DBB5B24EDBBDE
:105DE000B34211BC5D6F1BBC5FEE13BC35ECF7BB5F
:105DF000AD18AEBB6F9B29BB973872391C78353B09
:105E0000672C9A3B9609BF3B3DEFC63B4963B43BC9
:105E10008F368E3B62BE3C3BCC26C03ACBA0DA39F3
:105E200073301BB8D5E85539C98E8D3A1C951B3B8C
:105E30003A90753B6FF59C3B8315A73B00AC8E3BBE
:105E400053B21C3B1B4C43BAB6BA9CBB906717BC01
:105E500038DB5CBCB28089BC145D97BCE0A293BC0B
:105E600004E877BCC91E21BCD07E24BB64CDC83BEE
:105E7000F67A773CF6D0BE3CB725F23CC8CF063D5B
:105E8000C9CC053D23C0E93CB3B6A93C0727223C59
:105E9000A48C38BBEB1C83BC234BE6BC03241ABD8B
:105EA000A26131BDA06D35BD520B25BD267201BD6D
:105EB0001E6D9CBC904C87BB492B3E3C4B77D73C1E
:105EC000B1A41C3DA9833C3DD192473DA9833C3DF3
:105ED000B1A41C3D4B77D73C492B3E3C904C87BB33
:105EE0001E6D9CBC267201BD520B25BDA06D35BD3B
:105EF000A26131BD03241ABD234BE6BCEB1C83BC5D
:105F0000A48C38BB0727223CB3B6A93C23C0E93C8C
:105F1000C9CC053DC8CF063DB725F23CF6D0BE3C06
:105F2000F67A773C64CDC83BD07E24BBC91E21BC29
:105F300004E877BCE0A293BC145D97BCB28089BC36
:105F400038DB5CBC906717BCB6BA9CBB1B4C43BA31
:105F500053B21C3B00AC8E3B8315A73B6FF59C3BBB
:105F60003A90753B1C951B3BC98E8D3AD5E8553947
:105F700073301BB8CBA0DA39CC26C03A62BE3C3BAA
:105F80008F368E3B4963B43B3DEFC63B9609BF3B22
:105F9000672C9A3B1C78353B973872396F9B29BB2D
:105FA000AD18AEBB35ECF7BB5FEE13BC5D6F1BBC31
:105FB000B34211BC5B24EDBBD1949DBB8A1EF8BAE1
:105FC00029AF953ABB7B803B488AC83BE4F4F53B5C
:105FD000707B023CAB05F63BBD8DCD3B4CFF923B4D
:105FE000C0EC1E3B2C47C839FFCBB5BA446C30BB64
:105FF000BD1D61BB87A66CBB257758BB9E422EBBDF
:106000005A0EF4BAFF428FBAC2DB03BA8FFC41B911
:10601000B91C2FB92E56D4B933FA51BA68E89FBAD1
:10602000D87DC7BAAA7CCFBABBEEADBA20F040BAD1
:10603000B5FE16394F779E3A9752173B45F5563BBA
:106040000EDC813B5EBD8A3BC2DB833BE84C5A3BA6
:10605000F99E113B7C7B573AFDF936BA59190DBBB5
:1060600055875CBBE14389BB8F8994BB9B3A8FBB4F
:106070001F4D75BB3CF633BBD87DC7BA074573B916
:10608000D6717C3AF2B4FC3A726D283B2E733A3BDF
:10609000C845353BE1D31C3B118DEE3AB22C983A02
:1060A0000B5D093ABD3786360742B2B90954FFB9CC
:1060B000118DEEB903249AB9EE93A3B84913EF38C2
:1060C00072335C398BDE293959854DB89E62D5B95A
:1060D000D7F761BA7EC4AFBA234BE6BAA4C604BBF5
:1060E0009C5008BBAB05F6BA6A34B9BA9A443DBABB
:1060F000DE1E043964CA873ADEE7F83A6DC92A3BE6
:1061000064CD483B882C523B6C43453B29EC223BF9
:106110007061DD3ADC12393A4B1FBAB95839B4BA5A
:10612000131013BB0EF53BBBFDDC50BB1BF24FBB8A
:10613000BDFD39BB312512BB83A5BABABD3706BA3E
:10614000BF49D339D8F4A03A71ADF63A5E63173B34
:106150009BCA223B6D8C1D3B608F093B84F1D33A77
:10616000A1F4853A64CDC839765174B964CD48BA82
:10617000E7E099BAD66EBBBA9E25C8BAAE11C1BACD
:106180005358A9BADB4C85BA929133BAF0A2AFB991
:10619000BD3706B645F295394E2B053A6AF72B3ACC
:1061A000ED0D3E3AD1CA3D3A118A2D3A6B7D113A36
:1061B0003AADDB3901158E396F120339B5FE16B7CA
:1061C00061C1FDB8931A5AB9EA758BB9E23C9CB922
:1061D000A06EA0B903249AB9EA758BB949136FB9B7
:1061E00020F040B918B410B9DE21C5B80F7E62B8EE
:1061F000ACC5A7B79C53C936931ADA37EE93233848
:1062000062BE3C3820F04038E65A343873301B38D0
:1062100082A8FB3720F0C037BD3786378BE16A375D
:10622000BD3706B7BD3706B6BD3786B5BD3786352F
:10623000000000009C53C9B6399B8EB70F7EE2B7B1
:106240009C53C9B79C53C93652499D388FFC41397C
:10625000753FA7390536E73953CF023A3CBCE739D9
:10626000E65D75390745F3B8E02D10BA9EEB7BBAB1
:10627000F9DB9EBAC9CB9ABA33FA51BAF6CFD3B882
:1062800059854D3A9E62D53A728A0E3B6DE6103BB7
:10629000D316D73AAD4B0D3A89D25EBA1EC10DBBAB
:1062A00031EB45BB59854DBB6BBA1EBB2F1686BA69
:1062B0008849383A45F2153B438C573BBE86603BD4
:1062C00064EA2E3B7CB5A33A7C7BD7B90CE9F0BAE3
:1062D0009FAB2DBBB7B32FBBA52F04BB884C79BA9E
